:400000000080002011000000A1070000A107000008B5044B1A6803F53F5302331A6000F0C7FB00BFFA46004010B5054C237833B9044B13B10448AFF300800123237010BD65
:400040004881FF1F00000000980F0000084B10B51BB108490848AFF300800848036803B910BD074B002BFBD0BDE81040184700BF000000004C81FF1F980F0000C880FF1FB4
:4000800000000000F8B500F011FE044600F0080303F0FF051BB300F015FE0746194B1E88361AB6B200F05EFE48B9164B5B889E4203D0144B5E6001221A72124B5E80114AD2
:4000C000538901339BB25381632B04D9134601221A7200225A810B4B1F8000229A8114F0010F0BD0074A938901339BB29381012B04D900F037FE0022024B9A81002DC2D1C4
:40010000F8BD00BF6481FF1FF8B500F069FE044600F0080303F0FF0523B300F06DFE0746204BDE89361AB6B200F0B6FE48B91D4B1B8A9E4203D01B4B5E6101221A76194B5F
:400140001E82184A538B01339BB25383B3F57A7F04D3134601221A7600225A83114BDF8100229A8314F0010F18D00E4A938B01339BB29383012B11D900F08EFE28B9094BFA
:4001800000225A6101221A7605E0064B4FF47A725A6101221A760022024B9A83002DB4D1F8BD00BF6481FF1F034A1378591C1170024AD054704700BF9981FF1F9C81FF1F00
:4001C00070B500F05DFB00F0080000F0FF04D8B100F062FB06460E4B1D6A2D1A00F034FC01280AD100F036FC012803D14C20FFF7DBFF02E05220FFF7D7FF312D02D8212046
:40020000FFF7D2FF024B1E62002CDAD170BD00BF6481FF1F70B500F07FFC00F0080000F0FF04D8B100F084FC06460E4B5D6A2D1A00F0CEFC01280AD100F0D2FC012803D1C4
:400240004620FFF7B1FF02E04220FFF7ADFF312D02D82120FFF7A8FF024B5E62002CDAD170BD00BF6481FF1F064B1A78064B1B789A4205D0591C044A1170044AD05C7047B6
:40028000002070479981FF1F9881FF1F9C81FF1F08B51C4A1368184410601B4B9B6A98420BDB136000F0EAFB012802D1532000F097FB002000F0D6FB08E000F0DFFB10B993
:4002C000732000F08DFB012000F0CCFB0D4B1B68002B0DDC00220B4B1A6000F0E3FB012802D1542000F07CFB002000F0CFFB08BD00F0D8FB10B9742000F072FB012000F068
:40030000C5FB08BDCC80FF1F6481FF1F08B51D4A5368184450601C4B9B6A98420BDB536000F072FC012802D1552000F059FB002000F05EFC09E000F067FC012802D17520B7
:4003400000F04EFB012000F053FC0E4B5B68002B0DDC00220B4B5A6000F06AFC012802D1562000F03DFB002000F056FC08BD00F05FFC012802D1762000F032FB012000F060
:400380004BFC08BDCC80FF1F6481FF1F09281CD908B5322303FB00F00C4B986240100C4B186058600020FFF773FF0020FFF7AEFF732000F015FB742000F012FB752000F082
:4003C0000FFB762000F00CFB08BD70476481FF1FCC80FF1F10B562B600F0DEFA4B4800F025FB4B4800F046FC4A4800F0DDFC4A4800F074FD002000F035FB002000F046FB91
:40040000002000F0F5FB002000F006FC00F0D2FA0028FBD10BE000F0CDFA30B9512000F0DFFA322000F054FB01E0FFF7AFFF3B4B9B6A002BEFD000F071FA00F0BBFB00F0B9
:4004400083FC00F01BFD00F0B5FAFFF79FFFFFF70BFF044600B300F0C3FA423C102C1BD8DFE804F0161A1A1A121A1A1A1A1A091A1A1A1A1A0D000120FFF70AFF0CE04FF0D5
:40048000FF30FFF705FF07E00120FFF73FFF03E04FF0FF30FFF73AFF204B1B7A13F0FF0F1CD01E4B5C6800221A72502000F098FAB4F57A7F01D24FF47A74B4F5FA6F01D9FB
:4004C0004FF4FA64C4EB0424A4F57934183C1448A0FB0430C0F3871000F082FA0F4B1B7E13F0FF0FAFD00D4B5C6900221A76482000F076FA631E082B00D80A240948A0FB49
:400500000430C0F3C70000F06BFA9CE7C10100001502000085000000090100006481FF1FD34D6210CDCCCCCCFEE700BFF0B40022174611E050F82760F3B226F0FF0608E0D8
:4005400001EB420511F812406D78A5550132013BDBB2002BF4D101371F2FEBD9F0BC7047064B1B78DBB203F00701054A11701B09013213704422034B1A707047CF01004951
:400580006E5800407658004008B50A46002100F0FAFC08BD38B51722274B1A80182327490B7002310A80264A1370192502321580023213700222234B1A7008224FF04023A0
:4005C0001A70032103F5007319701F4B1B78DBB21E490B701E4B1A8041F25122023B1A8000240CE01B4B1B7803F0010343EA440404F003044FF4F07000F07EFC013D0DB1F4
:40060000032CEFD115B90320FFF78EFF124B4FF480721A8007221A70002210490A704820023108701A700222033B1A700C4A137843F00703137038BD804000408240004062
:40064000864000400043004008010049A146004022420040254200400440004006400040A243004008B500F083FC08BD38B572B6384A137843F00403137000240CE0364D9B
:40068000630019194A0011462A44084691882858FFF77AFF0134E4B2072CF0D900240BE02D49A3001819420088188022416B006BFFF7D8FF0134E4B2002CF1D027494FF051
:4006C0009040FFF733FF264A137843F0020313701032137843F002031370224C237843F040032370A2F58632513A137843F01003137008221C491D48FFF7B4FF0A221C4956
:400700001C48FFF7AFFF08221B491C48FFF7AAFF08221B491B48FFF7A5FF08221A491B48FFF7A0FF1A4A137843F008031370194D61232B70FFF72EFF81232B700122164BF5
:400740001A70FFF70DFF0E2221461448FFF78AFF38BD00BFE84600409C0F00008000004803500140A04300404C0900480251004054090048C051004060090048F2510040D5
:4007800068090048125100407009004832510040224300400048004004000840B043004008B500F0B9FB03680C2B00D1FEE7FEE708B5104E104D16E029686B68AC68002207
:4007C00004E051F8040B43F8040B0432A242F8D1E868002203E0002143F8041B04328242F9D11035013E002EE6D100F09BFBFFF7F1FDFEE701000000FC0F000008B5104A21
:40080000104B1A60104A136843F40073136000230AE0032B03D80D4A52F8231000E00C490C4A42F8231001332F2BF2D90A4B1A780A4B1A70074A0A4B1A60FFF717FF08BDFF
:400840000004FA050CED00E014ED00E000000000A10700000080FF1FBC760040C080FF1F08ED00E0024A137843F080031370704774650040014B1870704700BF876500407A
:40088000014B1878704700BF67650040014B1860704700BF24650040014B1868704700BF44650040014B1860704700BF0465004000F00300044B1A7802F0FC021A701A78E9
:4008C00010431870704700BF7465004008B501E0FFF7E2FFFFF7D4FF10F0080FF8D108BD08B54FF0FF30FFF7D1FF4FF0FF30FFF7D9FF00F009FB084A137843F010031370E4
:4009000000F006FB0020FFF7D3FFFFF7DFFF0220FFF7B0FF08BD00BF9765004008B5054B1B7823B9FFF7DCFF0122024B1A70FFF799FF08BD9081FF1F7222074B1A70002327
:40094000064A137006215F3A1170472110321170B03A1370704700BF8B6500408865004010B500F0D1FA04460A4A137843F020031370033A137843F010031370FF3A137821
:4009800043F01003137000F095F8204600F0C0FA10BD00BF9B65004008B5054B1B7823B9FFF7CAFF0122024B1A70FFF7D9FF08BD9181FF1F084B1B78DBB213F0200F06D0A2
:4009C000064A1078C0B213F01E0F02D17047002070470020704700BF686500404B650040034B1B7813F0040FFAD1024B187070476964004049640040014B1B68186470473F
:400A000008ED00E04001C0B2014B1870704700BF00E400E00122014B1A60704700E100E00122014B1A60704780E100E010B50446FFF7F6FF2046FFF7DFFF0720FFF7E2FFAC
:400A4000FFF7E8FF10BD00BF014B1878C009704731510040024B1878C0F38010704700BF31510040044A137803F0FE0300F0010018431070704700BF00510040024B18781A
:400A800000F00100704700BF00510040044A137803F0FD03400000F0020018431070704700510040024B1878C0F34000704700BF00510040054A137843F00403137010326D
:400AC000137843F004031370704700BFA243004010B5044605E0084B186800F00DFAA4F50044B4F5004FF6D8034B586800FB04F000F002FA10BD00BFD480FF1F024A1378F4
:400B000043F080031370704773640040014B1870704700BF83640040014B1878704700BF63640040014B1860704700BF24640040014B1868704700BF44640040014B1860F4
:400B4000704700BF0464004000F00300044B1A7802F0FC021A701A7810431870704700BF7364004008B501E0FFF7E2FFFFF7D4FF10F0080FF8D108BD08B54FF0FF30FFF70B
:400B8000D1FF4FF0FF30FFF7D9FF00F0BDF9084A137843F01003137000F0BAF90020FFF7D3FFFFF7DFFF0220FFF7B0FF08BD00BF9364004008B5054B1B7823B9FFF7DCFFAF
:400BC0000122024B1A70FFF799FF08BD9381FF1F024B1878C0F34010704700BF31510040024B1878C0F30010704700BF31510040044A137803F0FE0300F0010018431070ED
:400C0000704700BFF0510040024B187800F00100704700BFF0510040044A137803F0FD03400000F00200184310707047F0510040024B1878C0F34000704700BFF051004020
:400C4000014B1B685864704708ED00E04001C0B2014B1870704700BF01E400E00222014B1A60704700E100E00222014B1A60704780E100E010B50446FFF7F6FF2046FFF701
:400C8000DFFF0720FFF7E2FFFFF7E8FF10BD00BF024A137843F080031370704771640040014B1870704700BF81640040014B1878704700BF61640040014B1880704700BFF3
:400CC00040680040014B188880B2704780680040014B1880704700BF0068004000F00300044B1A7802F0FC021A701A7810431870704700BF7164004008B501E0FFF7E2FF52
:400D0000FFF7D4FF10F0080FF8D108BD08B54FF6FF70FFF7D1FF4FF6FF70FFF7D9FF00F0F3F8084A137843F01003137000F0F0F80020FFF7D3FFFFF7DFFF0320FFF7B0FFAF
:400D400008BD00BF9164004008B5054B1B7823B9FFF7DCFF0122024B1A70FFF799FF08BD9481FF1F024B1878C0F34010704700BFF1510040014B1B689864704708ED00E0BE
:400D80004001C0B2014B1870704700BF02E400E00422014B1A60704700E100E00422014B1A60704780E100E010B50446FFF7F6FF2046FFF7DFFF0720FFF7E2FFFFF7E8FF19
:400DC00010BD00BF024A137843F080031370704774640040014B1870704700BF84640040014B1878704700BF64640040014B1880704700BF44680040014B188880B27047A1
:400E000084680040014B1880704700BF0468004000F00300044B1A7802F0FC021A701A7810431870704700BF7464004008B501E0FFF7E2FFFFF7D4FF10F0080FF8D108BD54
:400E400008B54FF6FF70FFF7D1FF4FF6FF70FFF7D9FF00F059F8084A137843F01003137000F056F80020FFF7D3FFFFF7DFFF0320FFF7B0FF08BD00BF9464004008B5054B47
:400E80001B7823B9FFF7DCFF0122024B1A70FFF799FF08BD9581FF1F024B1878C0F3C000704700BF31510040014B1B68D864704708ED00E04001C0B2014B1870704700BF55
:400EC00003E400E00822014B1A60704700E100E00822014B1A60704780E100E010B50446FFF7F6FF2046FFF7DFFF0720FFF7E2FFFFF7E8FF10BD00BF0230800803D000BFF4
:400F000001380046FCD17047EFF3108072B6704780F31088704700BF014B1868704700BF4481FF1F0E4B70B51E460E4C0025E41AA410A54204D056F8253098470135F8E752
:400F400000F04AF8084B094C1E46E41AA4100025A54204D056F8253098470135F8E770BDE40F0000E40F0000E40F0000EC0F000010B5431E0A44914204D011F8014B03F89E
:400F8000014FF8E710BD03460244934202D003F8011BFAE77047000000000000205100401000405100403000000001400010001401408006001B0140000100400140000A7A
:400FC000004C01400002005001402000801A0140CC08004880004300F8B500BFF8BC08BC9E4670474D000000FD070000F8B500BFF8BC08BC9E46704729000000101000005F
:40100000C880FF1F80000000580100000000000000000000FA000000FA0000000000E02EC05D00001800000000366E01000000000000000000000000000000000000000095
:40104000000000000000000000000000D60F00000000000000000000000000000000000000000000000000000000000000000000000000000000000000000000000000008B
:40108000000000000000000000000000E480FF1F000000000000000000000000000000000000000000000000000000000000000000000000000000000000000000000000AE
:4010C00000000000000000000000000000000000000000000000000000000000000000000000000000000000000000000000000000000000000000000000000000000000F0
:4011000000000000000000000000000000000000000000000000000000000000000000000000000000000000000000000000000000000000000000000000000000000000AF
:40114000000000000000000000000000000000000000000000000000000000000000000000000000000000000000000000000000000000000000000000000000000000006F
:40118000000000000000000000000000000000000000000000000000000000000000000000000000000000000000000000000000000000000000000000000000000000002F
:020000040003F7
:0200000480007A
:400000000252004004640040036500404E0001402B010140510201402C030140480401403205014042060140300701404C0801402E0901404C140140301501403716014014
:400040001A1701404C1801403B190140381B01400640014004410140034201400143014002460140044701400348014009490140014C0140074D01400C50014001510140A1
:4000800060806180810F830F840F890F870F88388B724052420349FF4AFF4BFF4F0150185A045F016040624064406540668068806A806C806E808150824383AD89308BC6CA
:4000C0008C018E06915A93A0940898029A019C309D309FC3A010A220A410A620AA40ABFFAC30B040B203B404B5F0B638B70FBAC0BB80BE05C012C203C5ECC702C813C9FFB7
:40010000CAFFCBFFCD83CE03CF01D018D283D403D604D804D904DA04DB04DF01E040E240E440E540E680E880EA80EC80EE80058007400E151540160817061D081E551F0420
:40014000269027022F04368037013D203E01421845084608474048014D044F0156085D045E605F0165016D606F05740177408101C090C2E0C4F0CA20CC90CEA0D076D208D1
:40018000D6F0D8804056420349FF4AFF4BFF4F0150185A045D015F016040624064406540668068806A806C806E808410880489308A028BC68D5A8E018FA09207942095300D
:4001C000964097C39C029E0CA060A820AA40ABFFAC60AD50AFADB070B208B30FB406B5F0B601BA03BB08BE50C056C203C5ECC702C813C9FFCAFFCBFFCD83CE03CF01D01822
:40020000D283D403D604D804D904DA04DB04DC99DD91DF01E040E240E440E540E680E880EA80EC80EE8000040201030809080B4110091302180419601B0921082210280108
:4002400029202B013108395040204420470849054A0A4C014E0A5208594A5A206380680869506B02734083409D80C007C20DC40BCA0CCC02CE0CD042D23CD60FD8010303A3
:40028000040A06140A200C0A0E1412011C061D021E181F012220261E28062A182D012F023001341E350336203E403F104054420649FF4AFF4BFF4F015018528354035604E2
:4002C000580459045A045B045C015D195F016040624064406540668068806A806C806E80C051C206C9FFCAFFCBFFCD83CE03CF01D018D608DA04DB04DD09DF01E040E24088
:40030000E440E540E680E880EA80EC80EE8000080140020808020A0110081101130819501A802004230828023240380239014101460149204B404D204F4059555C4061022D
:400340006580680869506B0270018D0293409402970199259D8A9E019F08A208C007C209C40ECA08CC08CE01D011D23CD61FD811E6104051420649FF4AFF4BFF4D834E03BB
:400380004F01501856085A045B045D995F016040624064406540668068806A806C806E808504860F89018B0299039E09A005A103A60EAA03AD01AF02B507B60FBA80BB30D0
:4003C000C054C206C5ECC720C823C9FFCAFFCBFFCD83CE03CF01D018D804D904DA04DC11DD09DF01E040E240E440E540E680E880EA80EC80EE8000040A01104812201302D5
:4004000019401A01200822202840294032203804391041014601492A4B404D204F40510152015D80670190049110934095029601970199209B029C029D0A9E01A008A40471
:40044000B440C004C201C40ECA09CC04CE06D011D23CD610D8100101030208070C020E011C011D021E061F012407250329032C042E0131033607580459045C225F018413CB
:400480008530860C870C8B038C138D2C8E048F119420954099109C0A9D149E14A11CA208A322A403A614A980AA15AD09AF10B010B220B380B40FB51FB760B980BA20BE05DC
:4004C000BF04C026C105C50CC6EBC80DC9FFCAFFCBFFCEF0CF44D00CD401D804D904DA04DB04DC22DD22DF01E6C0EA40EB02004402020420060208400A220D80103812C0BA
:400500001620174018041A401B041D8021102294274028402A502E202F28308832203740384439203E02400448284A025080521058115A488F04C0C5C285C4AECA6DCC1E62
:40054000CE8ED004D20CD60FEA4000080402060109300BC60C300D5A0FA014101530162017C31C011E06203023FF28102A202D502E032FAD3038330F340435F036033A0338
:400580003B083E404054420149FF4AFF4BFF4F0150185283580459045A045B045C995D995F016040624064406540668068806A806C806E80C051C204C9FFCAFFCBFFCD83DB
:4005C000CE03CF01D018D608DA04DB04DD99DF01E040E240E440E540E680E880EA80EC80EE80004509080B011008134218451B412108221028802B41310839904001410168
:40060000448046014B404F405F806701680869906B0272807340814085808F8091029401954096209A019D809E80A740C00DC205C40BCA09CC02CE0CD099D218D610D8108F
:40064000E4104041420549FF4AFF4BFF4D834E034F01501856085A045B045D195F016040624064406540668068806A806C806E808301AF01B701BF40C045C201C5ECC720B1
:40068000C823C9FFCAFFCBFFCD83CE03CF01D018D403D604D904DA04DB04DD99DF01E040E240E440E540E680E880EA80EC80EE8022402A8039024001428046814802490534
:4006C0004F8050025101520159055AA05D406040640280409C029D80CA08CE01D099D218D61FD811000D050206020A0D0E0C11021202140D150219021A0D1C0C2008250188
:4007000029012C042D013001310132023502360C38023B803E043F105418580459045B045C225D205F018531860587068E03912C930397139B089C069E019F0CA131A20657
:40074000A30EA602AA01B007B10FB330B908BA02BB02BF04C003C640C9FFCA07CBFFCC40CD20CEF0CF05D008D804D904DA04DC22DD02DF01E040E1A8E240E32000440240E7
:4007800003400480050A07040A020D800E64100812A01642184019011E421F04210A2201248025402602270929012F2A3008310232A035023610370538043E0441085008EF
:4007C00052205E02640267089004946096029B409E02A180A280A408A620A728B001B210C0F5C2F1C49ECA71CCEFCE42D002D680D8300580061407400C010D800EA4146416
:400800001D021E242450268027042CC22D102E043404365237143C403E2A4401454247104D984E0254025F086C106F2A7480763C8012851086808C208E02942096049B485C
:400840009C029D089E029F04A1C0A202A610A72AC0F0C2F0C470CAF0CCF0CEF0D0B0D230D6403002338037148002CCF0E22083109F14A780E2208F049F04A780A78005029A
:40088000C0048D02B502E002EA028380A780E62005100F11811087108F01C080C2A0E010E4209902128075028E809902C408DE04E20200070101080309010A030B010C0487
:4008C000100611011A021B011C0400FF020420400C08000004180000000043044F000023433C0C020F274018033F100008100000011C20210C0043800000008030400F80F9
:400900004C1F0038000028200000010425010600040E00C021FFFFFF62A0F0410C00000000000212040404042222000100000000000040020010301000101012000000003F
:4009400000000000000000000000000000030300000000008000408080008000000000002003030000000000000B0B0000000000F8000000000000000000000000000000FD
:400980000000000000000000000000000000000000000000000000000000000000000000000000000000000000000000000000000000000000000000000000000000000037
:4009C00000000000000000000000000000000000000000000000000000000000000000000000000000000000000000000000000000000000000000000000000000000000F7
:400A000000000000000000000000000000000000000000000000000000000000000000000000000000000000000000000000000000000000000000000000000000000000B6
:400A40000000000000000000000000000000000000000000000000000000000000000000000000000000000000000000000000000000000000000000000000000000000076
:0200000490006A
:0400000000004005B7
:0200000490105A
:04000000BC90ACAF55
:0200000490303A
:0200000045AB0E
:0200000490402A
:4000000000000000000000000000000000000000000000000000000000000000000000000000000000000000000000000000000000000000000000000000000000000000C0
:400040000000000000000000000000000000000000000000000000000000000000000000000000000000000000000000000000000000000000000000000000000000000080
:400080000000000000000000000000000000000000000000000000000000000000000000000000000000000000000000000000000000000000000000000000000000000040
:4000C0000000000000000000000000000000000000000000000000000000000000000000000000000000000000000000000000000000000000000000000000000000000000
:0200000490501A
:0C00000000012E16106900012E1F56147E
:00000001FF